:1000000009C0AFC0AEC0ADC0ACC0ABC0AAC0A9C033
:10001000D1C0A7C011241FBECFE9CDBF20E0A0E60C
:10002000B0E001C01D92AC36B207E1F700E401BDBB
:10003000789401D0D0C0BB98C39AC39ABC98C49A94
:10004000C49ABA9AC298B89AC298B99A11E001E0D3
:1000500083E088D0811110C0C091660084E082D016
:10006000813051F4C11108C0809366001092650080
:10007000C29AC09881E181D083E074D0811158C0C8
:10008000C091660084E06ED0811152C0CC2309F487
:100090004FC08091650081114BC010926100109299
:1000A0006200109263001092640010926600109338
:1000B0006500C298C09A85E060D084E053D0811179
:1000C00007C080916000811103C0C09A0093600056
:1000D00084E048D0813081F480916000882361F011
:1000E000C098109260005FD080936100909362008E
:1000F000A0936300B093640056D04091610050918A
:1001000062006091630070916400841B950BA60BE4
:10011000B70B8C3D9540A105B10578F284E022D063
:10012000813059F6809160008111C7CF109265002F
:1001300083E018D0C82F813009F08ACF84E012D034
:10014000811186CF80916600811182CF80916500F8
:1001500081117ECFC0936500C298C09A85E00DD012
:1001600077CF4ECF26B330E0A90102C05595479511
:100170008A95E2F7CA018170089593E093BFB99A16
:10018000811105C08FB58F7D8FBDC19808958F3FB8
:1001900029F48FB58F7D8FBDC19A08959FB5936265
:1001A0009FBD89BD0895E7E6F89481919191A19151
:1001B000B1911895EF93EFB7EF930F93E7E60081B6
:1001C0000D5E02C000810F4F0193E0F70F91EF9198
:0A01D000EFBFEF911895F894FFCFF0
:00000001FF
